:020000040800F2
:10000000008001203D4A000849490008574900087E
:100010005D490008634900086949000800000000C4
:100020000000000000000000000000006F49000810
:100030007D490008000000008B490008994900082C
:100040008D4A00088D4A00088D4A00088D4A000834
:100050008D4A00088D4A00088D4A0008A949000809
:100060008D4A00088D4A00088D4A00088D4A000814
:100070008D4A00088D4A00088D4A00088D4A000804
:100080008D4A00088D4A00088D4A000800000000D3
:100090000000000000000000000000008D4A000881
:1000A0008D4A00088D4A00088D4A00088D4A0008D4
:1000B0008D4A00088D4A00088D4A00088D4A0008C4
:1000C0008D4A00088D4A00088D4A00088D4A0008B4
:1000D0008D4A00088D4A00088D4A00080000000083
:1000E000B74900088D4A00088D4A0008000000004A
:1000F0000000000000000000000000008D4A000821
:10010000000000008D4A00088D4A00088D4A000852
:1001100000000000000000000000000000000000DF
:100120008D4A00088D4A00088D4A00088D4A000853
:100130008D4A0008000000000000000000000000E0
:100140000000000000000000000000008D4A0008D0
:100150008D4A00088D4A00088D4A00088D4A000823
:100160008D4A00088D4A00080000000000000000D1
:10017000000000000000000000000000000000007F
:10018000000000008D4A0008000000000000000090
:040190008D4A00088C
:1001A00010B5054C237833B9044B13B10448AFF3B1
:1001B00000800123237010BD140200200000000005
:1001C000045A000808B5034B1BB103490348AFF3B9
:1001D000008008BD0000000018020020045A00083A
:1001E00053B94AB9002908BF00281CBF4FF0FF319E
:1001F0004FF0FF3000F072B9ADF1080C6DE904CE9C
:1002000000F006F8DDF804E0DDE9022304B07047F1
:100210002DE9F047089E04468846002B4BD18A42C0
:10022000154667D9B2FA82F24AB1C2F1200701FA43
:1002300002F320FA07F7954047EA030894404FEA93
:10024000154E230CB8FBFEF71FFA85FC0EFB178832
:1002500043EA084307FB0CF1994209D9EB1807F16F
:10026000FF3080F01B81994240F21881023F2B44FD
:100270005B1AA4B2B3FBFEF00EFB103344EA034456
:1002800000FB0CFCA44509D92C1900F1FF3380F0C8
:100290000781A44540F2048102382C4440EA07401B
:1002A000A4EB0C0400271EB1D4400023C6E9004390
:1002B0003946BDE8F0878B4209D9002E00F0EB806B
:1002C0000027C6E9000138463946BDE8F087B3FA91
:1002D00083F7002F47D18B4202D3824200F2FA808B
:1002E000841A61EB030301209846002EE0D0C6E992
:1002F0000048DDE702B9FFDEB2FA82F2002A40F0E0
:100300008F80491B4FEA154E1FFA85F80127B1FB74
:10031000FEFC230C0EFB1C1143EA014308FB0CF10D
:10032000994207D9EB180CF1FF3002D2994200F242
:10033000CD808446591AA3B2B1FBFEF00EFB101417
:1003400043EA044408FB00F8A04507D92C1900F142
:10035000FF3302D2A04500F2B6801846A4EB080491
:1003600040EA0C409FE7C7F1200CBB4022FA0CFE8C
:100370004EEA030E01FA07F420FA0CF521FA0CF309
:100380004FEA1E482543B3FBF8F92C0C08FB193340
:100390001FFA8EFA44EA034309FB0AF49C4202FA6C
:1003A00007F200FA07F10BD91EEB030309F1FF3046
:1003B00080F087809C4240F28480A9F10209734456
:1003C0001B1BADB2B3FBF8F008FB103345EA034446
:1003D00000FB0AFAA24508D91EEB040400F1FF3322
:1003E0006BD2A24569D90238744440EA0940A0FBA7
:1003F0000289A4EB0A044C45C2464B4654D351D063
:10040000002E69D0B1EB0A0564EB030404FA0CFC7E
:10041000FD40FC404CEA0505C6E90054002747E7CB
:10042000C2F1200320FA03F7954001FA02F021FA05
:1004300003F34FEA154E3843010CB3FBFEF71FFAE6
:1004400085F80EFB173341EA034107FB08F38B42A3
:1004500004FA02F407D9691807F1FF3C2FD28B4246
:100460002DD9023F2944CB1A81B2B3FBFEF00EFB1B
:10047000103341EA034100FB08F38B4207D96918A6
:1004800000F1FF3C17D28B4215D902382944C91A12
:1004900040EA07473BE73746304609E70746E7E6C5
:1004A0001846FBE64145ABD2B8EB020A69EB0E02F7
:1004B00001381346A4E76046E9E7184695E7674622
:1004C000D1E781467CE702382C4447E7ACF1020CC7
:1004D0002B442FE7384608E73746E9E6704700BF68
:1004E00001F0FF01102A2BDB10F0070F08D010F8E5
:1004F000013B013A8B422DD010F0070F42B3F6D1E9
:10050000F0B441EA012141EA014122F007047FF001
:1005100000070023F0E80256083C85EA010586EA58
:10052000010685FA47F5A3FA87F586FA47F6A5FA94
:1005300087F68EB9EED1F0BC01F0FF0102F00702A0
:1005400032B110F8013B013A83EA010313B1F8D14B
:100550000020704701387047002D06BF354603382C
:10056000073815F0010F07D1013015F4807F02BF65
:10057000013015F4C03F0130F0BC0138704700BFB6
:1005800080B588B000AF03460A46FB711346BB71C5
:100590000023BB60224B1B6B214A43F0040313630F
:1005A0001F4B1B6B03F00403BB60BB68BB79002BC4
:1005B00012D14FF40053FB6000233B6102237B61A7
:1005C0000223BB61FB79174A52F8233007F10C0272
:1005D0001146184601F07AFEBB79012B1CD14FF46D
:1005E0000053FB6000237B610F4B3B61FB790D4A9D
:1005F00052F8233007F10C021146184601F066FE4E
:1006000028235BB200220F21184601F0F0FD2823B9
:100610005BB2184601F007FE00BF2037BD4680BD23
:1006200000380240040000200000211080B58AB08C
:1006300000AF0346FB71FB79002B05D14FF48063BB
:100640007B62124B3B6203E002237B62104B3B62F6
:100650007B6AFB6001233B6100237B610123BB615B
:1006600007F10C031946386A01F030FE72B67B6A56
:100670009BB200221946386A01F0C2FF054A7B6A24
:10068000536162B600BF2837BD4680BD00000240FE
:1006900000080240003C014080B58AB000AF03462C
:1006A0000A46FB711346BB71FB79002B07D14FF44F
:1006B00080637B621B4B3B622823FB7705E00223B0
:1006C0007B62194B3B620723FB777B6A9BB201225B
:1006D0001946386A01F094FFBB79002B02D0142030
:1006E00001F072FC7B6ABB60104BFB6001233B6135
:1006F00001237B6107F108031946386A01F0E6FD22
:100700000B4A7B6A536197F91F30184601F0A5FD2B
:1007100097F91F30184601F086FD00BF2837BD4607
:1007200080BD00BF00000240000802400000211010
:10073000003C014080B584B000AF0346FB71FB79FB
:10074000002B05D14FF48063FB60094BBB6003E0D5
:100750000223FB60074BBB60FB689BB21946B8687D
:1007600001F036FF034618461037BD4680BD00BF76
:10077000000002400008024080B588B000AF0023AE
:10078000BB60324B1B6B314A43F0040313632F4BA6
:100790001B6B03F00403BB60BB6800237B602B4B27
:1007A0001B6B2A4A43F001031363284B1B6B03F0B6
:1007B00001037B607B6800233B60244B1B6B234A57
:1007C00043F002031363214B1B6B03F002033B60F6
:1007D0003B684FF48063FB6001233B6100237B6136
:1007E0000123BB6107F10C031946194801F06EFDA6
:1007F00000224FF48061164801F002FF002204211C
:10080000282001F0F4FC282001F00DFD0223FB60FC
:1008100001233B6100237B610123BB6107F10C03D2
:1008200019460C4801F052FD00220221094801F04E
:10083000E7FE00220421072001F0D9FC072001F087
:10084000F2FC00BF2037BD4680BD00BF003802402B
:10085000000002400008024080B584B000AF0346AB
:10086000FB71FB79022B15D0032B1DD0012B08D077
:10087000164BFB60FB68164A1A60FB6801221A7669
:100880001CE0144BFB60FB68114A1A60FB680222F3
:100890001A7613E0104BFB60FB684FF080421A6041
:1008A000FB6801221A7609E00C4BFB60FB684FF0F5
:1008B00080421A60FB6802221A7600BFF86802F0D4
:1008C0002CFB00BF1037BD4680BD00BF00030020D9
:1008D000000400404C02002088020020C4020020D6
:1008E00080B58EB000AF0346FB71FB79022B19D0A7
:1008F000032B23D0012B0AD02C4B7B637B6B2C4A20
:100900001A607B6B01221A7600233B6322E0294B9D
:100910007B637B6B264A1A607B6B02221A76042368
:100920003B6317E0244B7B637B6B4FF080421A6084
:100930007B6B01221A7600233B630BE01F4B7B632A
:100940007B6B4FF080421A607B6B02221A76042385
:100950003B6300BF7B6B3F225A607B6B00229A6037
:100960007B6B0022DA607B6B00221A61786B02F0ED
:10097000A9FA60237B610023BB610023FB61002394
:100980007B6207F114033A6B1946786B02F06AFB3D
:100990000023FB6000233B6107F10C031946786BD1
:1009A00002F066FE00BF3837BD4680BD0003002060
:1009B000000400404C02002088020020C4020020F5
:1009C00080B588B000AF03463960FB711346BB7138
:1009D00002F06CF93861FB79022B13D0032B1AD08B
:1009E000012B07D02B4BFB61FB692B4A1A600023BC
:1009F0007B6119E0294BFB61FB69274A1A600423DC
:100A00007B6111E0264BFB61FB694FF080421A606D
:100A100000237B6108E0234BFB61FB694FF08042C0
:100A20001A6004237B6100BF3B689B013A69B2FBFB
:100A3000F3F3013BFB60FB691B68FA68DA62FB6950
:100A4000FA68DA60BB79002B02D10023BB610EE0AB
:100A5000BB79642B01D96423BB71BB79FA6802FBB3
:100A600003F3114AA2FB03235B090133BB61FB695A
:100A70001B6803F134027B699B089B001344BA692D
:100A80001A607969F86902F079FA00BF2037BD462B
:100A900080BD00BF00030020000400404C02002085
:100AA00088020020C40200201F85EB5180B582B06F
:100AB00000AF0346FB71FB79032B1FD801A252F84C
:100AC00023F000BFD50A0008DF0A0008E90A000881
:100AD000F30A000800210C4802F078FA0FE0042124
:100AE0000A4802F073FA0AE00021094802F06EFA9F
:100AF00005E00421074802F069FA00E000BF00BFEA
:100B00000837BD4680BD00BF000300204C02002016
:100B100088020020C402002080B400AF00231846E1
:100B2000BD465DF8047B704780B400AF00231846D3
:100B3000BD465DF8047B704780B400AF00231846C3
:100B4000BD465DF8047B704780B400AF00231846B3
:100B5000BD465DF8047B704780B400AF00231846A3
:100B6000BD465DF8047B704780B400AF0023184693
:100B7000BD465DF8047B704780B400AF0023184683
:100B8000BD465DF8047B704780B582B000AF7860E9
:100B90000B4B1B68002B0AD0094B1B689B68002B72
:100BA00005D0074B1B689B687868984703E040F6C0
:100BB000020000F025F800BF0837BD4680BD00BF29
:100BC0003002002080B582B000AF78600B4B1B680C
:100BD000002B0AD0094B1B68DB68002B05D0074BA4
:100BE0001B68DB687868984703E040F6030000F074
:100BF00007F800BF0837BD4680BD00BF30020020A7
:100C000080B582B000AF0346FB800B4B1B68002B06
:100C10000DD0094B1B68D3F8F030002B07D0064BE2
:100C20001B68D3F8F030FA881046984700E0FEE7DA
:100C30000837BD4680BD00BF3002002080B582B0BD
:100C400000AF03463960FB800B4B1B68002B0AD0BA
:100C5000094B1B681B68002B05D0074B1B681B68E2
:100C60003868984703E04FF40060FFF7C9FF00BF02
:100C70000837BD4680BD00BF3002002080B500AF00
:100C8000094B1B68002B09D0074B1B685B69002BC5
:100C900004D0054B1B685B69984703E040F60500EC
:100CA000FFF7AEFF00BF80BD3002002080B584B0EA
:100CB00000AF0346FB710823FB730D4B1B68002B31
:100CC0000DD00B4B1B685B6A002B08D0084B1B68D0
:100CD0005B6AFA79104698470346FB7303E040F6D7
:100CE0000900FFF78DFFFB7B18461037BD4680BD1E
:100CF0003002002080B582B000AF0346FB710C4B80
:100D00001B68002B0BD00A4B1B689B6C002B06D07A
:100D1000074B1B689B6CFA791046984703E040F636
:100D20001200FFF76DFF00BF0837BD4680BD00BF52
:100D30003002002080B582B000AF03460A46FB7146
:100D40001346BB710C4B1B68002B0CD00A4B1B6865
:100D50005B6D002B07D0084B1B685B6DB979FA7986
:100D60001046984703E040F61500FFF749FF00BF23
:100D70000837BD4680BD00BF3002002080B584B07A
:100D800000AF03460A46FB711346BB800023FB738A
:100D90000D4B1B68002B0ED00B4B1B689B6E002B62
:100DA00009D0094B1B689B6EB988FA7910469847A1
:100DB0000346FB7303E040F61A00FFF721FFFB7BBD
:100DC00018461037BD4680BD3002002080B584B083
:100DD00000AF0346FB710023FB810E4B1B68002B09
:100DE0000FD00C4B1B68D3F88830002B09D0094B6F
:100DF0001B68D3F88830FA79104698470346FB8180
:100E000003E040F62200FFF7FBFEFB89184610378F
:100E1000BD4680BD3002002080B582B000AF0346E1
:100E2000FB710D4B1B68002B0DD00B4B1B68D3F8CF
:100E30000431002B07D0084B1B68D3F80431FA7932
:100E40001046984703E040F64100FFF7D9FE00BF87
:100E50000837BD4680BD00BF3002002080B582B09B
:100E600000AF03463960FB710D4B1B68002B0ED0A1
:100E70000B4B1B68D3F80C31002B08D0084B1B68B8
:100E8000D3F80C31FA7939681046984703E040F6F8
:100E90004300FFF7B5FE00BF0837BD4680BD00BF69
:100EA0003002002080B584B000AF03460A46FB80C4
:100EB00013467B71404AFB8813800023FB73FB8839
:100EC00041F64A12934205D1FFF726FE02463B4BFC
:100ED0001A6055E0FB88012B05D1FFF735FE02466D
:100EE000364B1A604CE0FB8841F63E02934205D136
:100EF00000F098F90246314B1A6041E0FB88B3F5E7
:100F0000C25F05D1FFF728FE02462C4B1A6037E07E
:100F1000FB88DC2B05D1FFF727FE0246274B1A6022
:100F20002EE0FB8841F64612934204D0FB8841F63E
:100F30004812934205D1FFF7F7FD02461F4B1A6096
:100F40001EE0FB8841F65012934204D0FB8841F624
:100F50005212934205D1FFF7EFFD0246174B1A607C
:100F60000EE0FB88F02B02D0FB88FA2B05D1FFF7AF
:100F700003FE0246114B1A6002E0104B00221A6079
:100F80000E4B1B68002B11D00C4B1B68D3F844315F
:100F9000002B0BD07B79002B08D0084B1B68D3F8B3
:100FA00044317A79104698470346FB73FB7B184619
:100FB0001037BD4680BD00BF340200203002002043
:100FC00080B483B000AF7860044A7B68136000BFD0
:100FD0000C37BD465DF8047B704700BF64030020FA
:100FE00080B483B000AF7860044A7B68136000BFB0
:100FF0000C37BD465DF8047B704700BF68030020D6
:1010000080B582B000AF0346FB71FB791846FFF74D
:101010000DFBFB790F4A1344002283F824200D4B6B
:101020001B78082B11D9FB79002B07D10120FFF782
:10103000FDFA084B002283F8252006E00020FFF788
:10104000F5FA044B002283F8242000BF0837BD4680
:1010500080BD00BF3C03002080B582B000AF0346D6
:10106000FB71FB79154A1344012283F82420134BAA
:101070001B78082B19D9FB7900211846FFF70CFBC8
:10108000FB79002B08D101210120FFF705FB0B4B59
:10109000012283F825200DE001210020FFF7FCFA52
:1010A000064B012283F8242004E0FB790121184635
:1010B000FFF7F2FA00BF0837BD4680BD3C030020B1
:1010C00080B582B000AF78600C4B1B8801339AB2B8
:1010D0000A4B1A80FFF750FB7B68002B02D100F00F
:1010E000A5FE02E0786800F0EDFE054B1B7818467F
:1010F00000F056FA00BF0837BD4680BD3802002018
:101100003C03002080B483B000AF0346FB71FB7941
:101110005B00054A9B0013445B6818460C37BD46CC
:101120005DF8047B704700BF3C03002080B584B0AD
:1011300000AF0346FB710023FB81104B1B781A465E
:101140000F4B9B5CFA799A4204D948F2010000F0F7
:101150009DFB0DE0FB79094A134493F82030082BDE
:1011600006D0FB79054A08335B0013449B88FB815A
:10117000FB8918461037BD4680BD00BF3C030020E8
:101180000800002080B584B000AF0346FB7108233F
:10119000FB730C4B1B781A460B4B9B5CFA799A42FB
:1011A00004D948F2010000F071FB05E0FB79054A23
:1011B000134493F82030FB73FB7B18461037BD4671
:1011C00080BD00BF3C0300200800002080B400AFB9
:1011D00000231846BD465DF8047B704780B584B097
:1011E00000AF0346FB710023FB810C4B1B781A46B2
:1011F0000B4B9B5CFA799A4204D948F2010000F04B
:1012000045FB06E0FB79054A08335B0013449B88E5
:10121000FB81FB8918461037BD4680BD3C0300208A
:101220000800002080B400AF024B1846BD465DF8B0
:10123000047B70471800002080B584B000AF0346DF
:10124000FB71FB791846FFF775FA0346FB81FB89B2
:1012500018461037BD4680BD80B584B000AF034648
:10126000FB71604B1B781A465F4B9B5CFA799A4284
:1012700004D948F2010000F009FBAFE0FB79184601
:1012800000F04AFB0346BB73BB7B564A134493F8FA
:101290002430002B00F09E800023FB73514B1B7801
:1012A000013B092B00F2828001A252F823F000BF1B
:1012B000D9120008F912000819130008AD1300082C
:1012C00053130008AD13000873130008AD13000892
:1012D000AD13000893130008FB79002B68D0414B35
:1012E00093F82130032B63D13E4B93F82230032B2C
:1012F0005ED10123FB735BE0FB79012B5AD8394B9C
:1013000093F82030032B55D1364B93F82130032B23
:1013100050D10123FB734DE0FB79012B09D8314BF0
:1013200093F82030032B04D12E4B93F82130032B5C
:101330000CD0FB79012B3FD92A4B93F82230032B99
:101340003AD1284B93F82330032B35D10123FB737B
:1013500032E0FB79002B31D0224B93F82130032B64
:101360002CD1204B93F82230032B27D10123FB7380
:1013700024E0FB79012B23D81A4B93F82030032B60
:101380001ED1184B93F82130032B19D10123FB7385
:1013900016E0144B93F82030032B13D1114B93F824
:1013A0002130032B0ED10123FB730BE000BF0AE0B9
:1013B00000BF08E000BF06E000BF04E000BF02E09D
:1013C00000BF00E000BFFB7B002B03D1BB7B1846B6
:1013D000FFF716FEFB79184600F008F800BF10373B
:1013E000BD4680BD3C0300200800002080B584B0CD
:1013F00000AF0346FB711C4B1B781A461B4B9B5CD2
:10140000FA799A4204D948F2010000F03FFA27E045
:10141000FB79154A134493F82030082B20D0FB7930
:10142000184600F02BFB0346FB73FB79184600F0CF
:10143000B1FC0346002B09D0FB79184600F00CFCE8
:101440000346BB73BB7B1846FFF730FBFB7B18469C
:10145000FFF72CFBFB79044A1344082283F8202071
:1014600000BF1037BD4680BD3C03002008000020AF
:1014700080B400AF034B1B881846BD465DF8047B63
:10148000704700BF3802002080B584B000AF03462B
:101490000A46FB711346BB713F4B1B781A463F4B04
:1014A0009B5CFA799A4204D948F2010000F0EEF907
:1014B0006EE0FB79384A134493F82030082B06D0AD
:1014C000FB79354A13441B7FBA799A4260D0FB7985
:1014D000314A134493F82030082B03D0FB79184687
:1014E000FFF784FFFB792C4A1344BA791A77FB790A
:1014F000294A1344032283F82020FB79184600F080
:101500000BFA0346FB73FB79184600F0B7FA034663
:10151000BB73FB7B1846FFF79FFDFB79184600F075
:1015200039FC0346002B23D0BB7B1B4A9B00134492
:101530005968FB79184A08335B0013449B88DBB277
:10154000C3F16403DAB2BB7B1846FFF739FAFB79C3
:10155000184600F081FB0346BB73BB7B0E4A9B0021
:1015600013445968BB7B64221846FFF729FA0FE041
:10157000BB7B094A9B0013445968FB79064A083330
:101580005B0013449B88DAB2BB7B1846FFF718FA5E
:1015900000BF1037BD4680BD3C030020080000207E
:1015A00080B582B000AF0346FB71424AFB791370ED
:1015B0000020FFF751F90120FFF74EF90220FFF755
:1015C0004BF90320FFF748F93A4B1B780C2B6BD8EB
:1015D00001A252F823F000BF0D1600080D160008F6
:1015E0000D1600080D16000827160008271600081B
:1015F00041160008411600085B1600085B1600083B
:1016000075160008751600088F1600080020FFF7F1
:1016100067F90120FFF764F90220FFF761F9032061
:10162000FFF75EF941E00120FFF716F90020FFF710
:1016300057F90220FFF754F90320FFF751F934E07E
:101640000320FFF709F90020FFF74AF90120FFF70F
:1016500047F90220FFF744F927E00120FFF7FCF8E3
:101660000320FFF7F9F80020FFF73AF90220FFF70F
:1016700037F91AE00220FFF7EFF80320FFF7ECF844
:101680000020FFF72DF90120FFF72AF90DE00120D6
:10169000FFF7E2F80220FFF7DFF80320FFF7DCF89E
:1016A0000020FFF71DF900E000BF00BF0837BD466E
:1016B00080BD00BF3C03002080B584B000AF03466E
:1016C0000A46FB711346BB800023FB73294B1B7832
:1016D0001A46294B9B5CFA799A4204D948F20100D8
:1016E00000F0D4F840E0FB79224A08335B00134451
:1016F000BA889A80FB791F4A134493F82030082B4C
:1017000030D0FB79184600F0B9F90346BB73FB797A
:10171000184600F03FFB0346002B13D0BB7B154A55
:101720009B0013445968FB79124A08335B00134449
:101730009B88DBB2C3F16403DAB2BB7B1846FFF7C8
:101740003FF90FE0BB7B0B4A9B0013445968FB79C0
:10175000084A08335B0013449B88DAB2BB7B184607
:10176000FFF72EF90123FB73FB7B18461037BD46AC
:1017700080BD00BF3C0300200800002080B584B07D
:1017800000AF03463960FB713B68354A934201D98B
:10179000334B3B600023FB735AE0FB795B00DAB20A
:1017A000FB7B1344BB73BB7B2E4A9B0013443A68FC
:1017B0005A60BB7B184600F0EBF803467B737B7BDB
:1017C000284A134493F82030082B3ED07B7B1846E0
:1017D00000F0E0FA0346002B27D07B7B184600F090
:1017E0003BFA03461A46BB7B934213D0BB7B1D4A90
:1017F0009B00134459687B7B1A4A08335B001344EF
:101800009B88DBB2C3F16403DAB2BB7B1846FFF7F7
:10181000D7F81AE0BB7B134A9B0013445968BB7B83
:1018200064221846FFF7CCF80FE0BB7B0D4A9B0003
:10183000134459687B7B0B4A08335B0013449B8835
:10184000DAB2BB7B1846FFF7BBF8FB7B0133FB73B7
:10185000FB7B012BA1D900BF1037BD4680BD00BF67
:10186000A08601003C03002080B483B000AF034693
:10187000FB71FB79012B01D8012300E000231846FE
:101880000C37BD465DF8047B7047000080B582B020
:1018900000AF0346FB80074B1B68002B05D0054BB0
:1018A0001B68FA881046984700E0FEE70837BD46F7
:1018B00080BD00BF6403002080B582B000AF00206F
:1018C000FFF7BAFC0346FB71114B93F82430FA7909
:1018D0009A4203D00E4AFB7982F824300120FFF7A8
:1018E000ABFC0346FB710A4B93F82530FA799A4218
:1018F00003D0074AFB7982F82530064B1B68002B82
:1019000002D0044B1B68984700BF0837BD4680BD16
:101910003C0300206803002080B485B000AF03467C
:10192000FB711A4B1B78082B26D801A252F823F022
:1019300055190008551900086719000867190008AB
:1019400055190008551900085519000867190008AD
:1019500055190008FB79002B02D10023FB730EE020
:101960000123FB730BE0FB79012B02D80023FB73EF
:1019700005E00123FB7302E00023FB7300BFFB7B48
:1019800018461437BD465DF8047B70473C030020C1
:1019900080B485B000AF0346FB71374B1B780A2B30
:1019A00060D801A252F823F0D5190008E719000801
:1019B000051A0008231A0008D5190008E7190008BD
:1019C000D5190008051A0008D5190008651A00087D
:1019D0004D1A0008FB79012B02D90123FB7344E067
:1019E0000023FB7341E0FB79032B02D10223FB733D
:1019F0003BE0FB79022B02D10123FB7335E000238E
:101A0000FB7332E0FB79012B02D90223FB732CE03C
:101A1000FB79012B02D10123FB7326E00023FB732A
:101A200023E0FB79032B02D10323FB731DE0FB7939
:101A3000022B02D10223FB7317E0FB79012B02D1A9
:101A40000123FB7311E00023FB730EE0FB79012BF4
:101A500002D0FB79032B02D10123FB7305E00023A5
:101A6000FB7302E00023FB7300BFFB7B18461437B7
:101A7000BD465DF8047B70473C03002080B485B010
:101A800000AF0346FB71734B1B780B2B00F2D88021
:101A900001A252F823F000BFC91A0008F71A000883
:101AA000231B00084F1B0008791B0008991B000826
:101AB000B71B0008D71B0008F51B0008071C00080F
:101AC0001B1C00082D1C0008FB79002B09D1614B61
:101AD0001B7F012B02D10023FB73B4E00123FB73B6
:101AE000B1E05C4B5B7F012B02D10223FB73AAE0C8
:101AF0000323FB73A7E0FB79002B09D1554B1B7F18
:101B0000012B02D10023FB739DE00123FB739AE0BC
:101B1000FB79012B02D10223FB7394E00323FB73B7
:101B200091E0FB79002B02D10023FB738BE0FB7962
:101B3000012B02D10123FB7385E0464B9B7F012BD8
:101B400002D10223FB737EE00323FB737BE0FB796E
:101B5000002B02D10023FB7375E0FB79012B02D12E
:101B60000123FB736FE0FB79022B02D10223FB738D
:101B700069E00323FB7366E0FB79002B02D10023AD
:101B8000FB7360E0334B5B7F012B02D10223FB73BD
:101B900059E00323FB7356E0FB79002B02D10023AD
:101BA000FB7350E0FB79012B02D10223FB734AE067
:101BB0000323FB7347E0FB79002B09D1254B1B7FE7
:101BC000012B02D10023FB733DE00123FB733AE0BC
:101BD0000223FB7337E0FB79002B02D10023FB7358
:101BE00031E0FB79012B02D10123FB732BE00223AF
:101BF000FB7328E0FB79002B02D10023FB7322E06A
:101C00000223FB731FE0134B1B7F012B02D1002328
:101C1000FB7318E00223FB7315E0FB79002B02D164
:101C20000023FB730FE00123FB730CE0094B1B7FC8
:101C3000012B02D10023FB7305E00123FB7302E0BB
:101C40000023FB7300BFFB7B18461437BD465DF8CD
:101C5000047B70473C03002080B584B000AF03468E
:101C6000FB71FF23FB734A4B1B780B2B79D801A226
:101C700052F823F0A51C0008D31C0008ED1C000836
:101C8000631D0008071D0008631D0008211D0008D2
:101C9000631D0008631D00083B1D0008631D00084C
:101CA0004F1D0008FB79002B09D1394B1B7F012BFD
:101CB00002D10123FB735EE00023FB735BE0344B36
:101CC0005B7F012B02D10323FB7354E00223FB73E0
:101CD00051E0FB79002B47D12D4B1B7F012B02D10B
:101CE0000123FB7340E00023FB733DE0FB79022BF3
:101CF0003CD1274B9B7F012B02D10323FB7335E0A3
:101D00000223FB7332E0FB79012B31D1204B5B7F47
:101D1000012B02D10323FB732AE00223FB7327E08C
:101D2000FB79002B26D11A4B1B7F012B02D10123FB
:101D3000FB731FE00023FB731CE0154B1B7F012B83
:101D400002D10223FB7316E00023FB7313E0104B58
:101D50001B7F012B02D10123FB730CE00023FB73DB
:101D600009E0FF23FB7306E000BF04E000BF02E0D0
:101D700000BF00E000BFFB7BFF2B03D148F2020055
:101D8000FFF784FDFB7B18461037BD4680BD00BFC2
:101D90003C03002080B485B000AF0346FB710023F4
:101DA000FB73214B1B780B2B2FD801A252F823F089
:101DB000E11D0008E71D0008F31D00080B1E0008C8
:101DC000FF1D00080B1E0008E71D00080B1E000881
:101DD0000B1E0008E11D00080B1E0008E11D000895
:101DE0000123FB7318E0FB79002B10D10123FB7357
:101DF0000DE0FB79022B0CD10123FB7309E0FB7989
:101E0000012B08D10123FB7305E000BF04E000BFF4
:101E100002E000BF00E000BFFB7B18461437BD4660
:101E20005DF8047B704700BF3C03002080B582B0A2
:101E300000AF28220021224802F05FFE204B002242
:101E40001A701F4B44F620625A601D4B44F6206204
:101E50009A601B4B44F62062DA60194B44F620620C
:101E60001A6100237B6015E0154A7B6808335B002C
:101E7000134464229A80124A7B6813441C33012263
:101E80001A700F4A7B681344203308221A707B684B
:101E900001337B607B68032BE6D900237B6008E07D
:101EA000074A7B681344243300221A707B6801338D
:101EB0007B607B68012BF3D900BF0837BD4680BD2E
:101EC0003C03002080B582B000AF7860282279689A
:101ED000034802F007FE00BF0837BD4680BD00BFC3
:101EE0003C03002080B500AF0E4B1B680D4A43F445
:101EF000007313600B4B1B680A4A43F48063136042
:101F0000084B1B68074A43F480731360032000F0FA
:101F100063F90F2000F008F802F044FB0023184694
:101F200080BD00BF003C024080B582B000AF786049
:101F3000124B1A68124B1B7819464FF47A73B3FB95
:101F4000F1F3B2FBF3F3184600F07BF90346002BE4
:101F500001D001230EE07B680F2B0AD8002279689C
:101F60004FF0FF3000F043F9064A7B68136000230E
:101F700000E0012318460837BD4680BDAC010020B3
:101F8000800100207C01002080B400AF064B1B784C
:101F90001A46064B1B681344044A136000BFBD4633
:101FA0005DF8047B704700BF800100206C030020B7
:101FB00080B400AF034B1B681846BD465DF8047B38
:101FC000704700BF6C03002080B584B000AF78601C
:101FD000FFF7EEFFB8607B68FB60FB68B3F1FF3F83
:101FE00005D0094B1B781A46FB681344FB6000BF01
:101FF000FFF7DEFF0246BB68D31AFA689A42F7D8A9
:1020000000BF1037BD4680BD8001002080B485B080
:1020100000AF78607B6803F00703FB600C4BDB6864
:10202000BB60BA684FF6FF031340BB60FB681A023F
:10203000BB68134343F0BF6343F40033BB60044AFF
:10204000BB68D36000BF1437BD465DF8047B7047A2
:1020500000ED00E080B400AF044BDB681B0A03F026
:1020600007031846BD465DF8047B704700ED00E0AD
:1020700080B483B000AF0346FB71FB7903F01F020D
:10208000074997F907305B09012000FA02F241F88D
:10209000232000BF0C37BD465DF8047B704700BFAE
:1020A00000E100E080B483B000AF0346FB71FB7930
:1020B00003F01F02074997F907305B09012000FA76
:1020C00002F2603341F8232000BF0C37BD465DF8B3
:1020D000047B704700E100E080B483B000AF0346AA
:1020E0003960FB7197F90730002B0BDA3B68DAB2E5
:1020F0000C49FB7903F00F03043B1201D2B20B44ED
:102100001A7609E03B68DAB2074997F907301201FD
:10211000D2B20B4483F8002300BF0C37BD465DF8F4
:10212000047B704700ED00E000E100E080B489B07E
:1021300000AFF860B9607A60FB6803F00703FB61E9
:10214000FB69C3F10703042B28BF0423BB61FB69B0
:102150000433062B02D9FB69033B00E000237B61BB
:102160004FF0FF32BB6902FA03F3DA43BB681A404F
:102170007B699A404FF0FF317B6901FA03F3D94341
:102180007B680B40134318462437BD465DF8047B3B
:102190007047000080B582B000AF78607B68013B7B
:1021A000B3F1807F01D301230FE00A4A7B68013B32
:1021B00053600F214FF0FF30FFF78EFF054B0022D9
:1021C0009A60044B07221A60002318460837BD4660
:1021D00080BD00BF10E000E080B582B000AF786045
:1021E0007868FFF713FF00BF0837BD4680BD80B594
:1021F00086B000AF0346B9607A60FB7300237B6151
:10220000FFF728FF78617A68B9687869FFF78EFF71
:10221000024697F90F3011461846FFF75DFF00BFE1
:102220001837BD4680BD80B582B000AF0346FB7154
:1022300097F907301846FFF71BFF00BF0837BD4668
:1022400080BD80B582B000AF78607868FFF7A2FFEC
:10225000034618460837BD4680BD80B582B000AF42
:102260000346FB7197F907301846FFF71BFF00BFC5
:102270000837BD4680BD000080B483B000AF7860F1
:102280007B68042B06D1094B1B68084A43F0040302
:10229000136005E0054B1B68044A23F00403136038
:1022A00000BF0C37BD465DF8047B704710E000E0CE
:1022B00080B500AF00F002F800BF80BD80B400AF71
:1022C00000BFBD465DF8047B7047000080B489B054
:1022D00000AF7860396000237B6100233B610023FD
:1022E000BB610023FB6159E10122FB6902FA03F3A0
:1022F0007B613B681B687A6913403B613A697B6983
:102300009A4240F048813B685B68022B03D03B68EF
:102310005B68122B23D1FB69DA087B68083253F81B
:102320002230BB61FB6903F007039B000F2202FA16
:1023300003F3DB43BA691340BB613B681A69FB696D
:1023400003F007039B0002FA03F3BA691343BB616E
:10235000FB69DA087B680832B96943F822107B68A8
:102360001B68BB61FB695B00032202FA03F3DB43DA
:10237000BA691340BB613B685B6803F00302FB6909
:102380005B0002FA03F3BA691343BB617B68BA6965
:102390001A603B685B68012B0BD03B685B68022BC3
:1023A00007D03B685B68112B03D03B685B68122B3E
:1023B00030D17B689B68BB61FB695B00032202FA3A
:1023C00003F3DB43BA691340BB613B68DA68FB691E
:1023D0005B0002FA03F3BA691343BB617B68BA6915
:1023E0009A607B685B68BB610122FB6902FA03F3B8
:1023F000DB43BA691340BB613B685B681B0903F0B0
:102400000102FB6902FA03F3BA691343BB617B68FB
:10241000BA695A607B68DB68BB61FB695B000322B9
:1024200002FA03F3DB43BA691340BB613B689A6865
:10243000FB695B0002FA03F3BA691343BB617B6873
:10244000BA69DA603B685B6803F08053002B00F0E8
:10245000A2800023FB60564B5B6C554A43F48043DB
:102460005364534B5B6C03F48043FB60FB68514A3D
:10247000FB699B08023352F82330BB61FB6903F010
:1024800003039B000F2202FA03F3DB43BA691340F4
:10249000BB617B68484A934219D07B68474A9342A4
:1024A00013D07B68464A93420DD07B68454A9342DD
:1024B00007D07B68444A934201D1042308E00723F4
:1024C00006E0032304E0022302E0012300E00023EE
:1024D000FA6902F0030292009340BA691343BB61A8
:1024E0003449FB699B080233BA6941F82320374B12
:1024F0001B68BB613B69DB43BA691340BB613B6846
:102500005B6803F48033002B03D0BA693B69134343
:10251000BB612E4ABB6913602C4B5B68BB613B6996
:10252000DB43BA691340BB613B685B6803F400336B
:10253000002B03D0BA693B691343BB61234ABB69D3
:102540005360224B9B68BB613B69DB43BA69134014
:10255000BB613B685B6803F48013002B03D0BA694E
:102560003B691343BB61194ABB699360174BDB6836
:10257000BB613B69DB43BA691340BB613B685B6885
:1025800003F40013002B03D0BA693B691343BB610A
:102590000E4ABB69D360FB690133FB61FB690F2BFA
:1025A0007FF6A2AE00BF2437BD465DF8047B7047BE
:1025B00000380240003801400000024000040240A0
:1025C00000080240000C024000100240003C0140A4
:1025D00080B485B000AF78600B467B807B681A6959
:1025E0007B881340002B02D00123FB7301E0002302
:1025F000FB73FB7B18461437BD465DF8047B7047C0
:1026000080B483B000AF78600B467B8013467B704C
:102610007B78002B03D07A887B689A6103E07B8803
:102620001A047B689A6100BF0C37BD465DF8047BD5
:102630007047000080B582B000AF0346FB80084BB6
:102640005A69FB881340002B06D0054AFB8853616A
:10265000FB88184602F060F900BF0837BD4680BD10
:10266000003C014080B586B000AF78607B68002BED
:1026700001D101232DE27B681B6803F00103002BCD
:1026800075D0A34B9B6803F00C03042B0CD0A04B1C
:102690009B6803F00C03082B12D19D4B5B6803F47D
:1026A0008003B3F5800F0BD1994B1B6803F4003303
:1026B000002B5BD07B685B68002B57D1012308E2BD
:1026C0007B685B68B3F5803F06D1914B1B68904AED
:1026D00043F4803313601DE07B685B68B3F5A02F83
:1026E0000CD18B4B1B688A4A43F480231360884BC0
:1026F0001B68874A43F4803313600BE0844B1B68EC
:10270000834A23F480331360814B1B68804A23F48F
:10271000802313607B685B68002B13D0FFF748FCB5
:10272000386108E0FFF744FC02463B69D31A642B8A
:1027300001D90323CDE1764B1B6803F40033002B52
:10274000F0D014E0FFF734FC386108E0FFF730FC0C
:1027500002463B69D31A642B01D90323B9E16C4BC0
:102760001B6803F40033002BF0D100E000BF7B684E
:102770001B6803F00203002B63D0654B9B6803F0DA
:102780000C03002B0BD0624B9B6803F00C03082B4F
:102790001CD15F4B5B6803F48003002B16D15C4BAC
:1027A0001B6803F00203002B05D07B68DB68012B5C
:1027B00001D001238DE1564B1B6823F0F8027B68A2
:1027C0001B69DB00524913430B603AE07B68DB680E
:1027D000002B20D04F4B01221A60FFF7E9FB386134
:1027E00008E0FFF7E5FB02463B69D31A022B01D94B
:1027F00003236EE1464B1B6803F00203002BF0D06D
:10280000434B1B6823F0F8027B681B69DB004049DF
:1028100013430B6015E03F4B00221A60FFF7C8FB23
:10282000386108E0FFF7C4FB02463B69D31A022B6C
:1028300001D903234DE1364B1B6803F00203002B43
:10284000F0D17B681B6803F00803002B30D07B6855
:102850005B69002B16D0304B01221A60FFF7A8FBF2
:10286000386108E0FFF7A4FB02463B69D31A022B4C
:1028700001D903232DE1264B5B6F03F00203002BEC
:10288000F0D015E0244B00221A60FFF791FB38616D
:1028900008E0FFF78DFB02463B69D31A022B01D9F2
:1028A000032316E11A4B5B6F03F00203002BF0D1F8
:1028B0007B681B6803F00403002B00F0A08000235A
:1028C000FB75134B1B6C03F08053002B0FD10023BF
:1028D000FB600F4B1B6C0E4A43F0805313640C4B90
:1028E0001B6C03F08053FB60FB680123FB750B4BF3
:1028F0001B6803F48073002B21D1084B1B68074A27
:1029000043F480731360FFF753FB386111E000BF9D
:102910000038024000004742800E474200700040ED
:10292000FFF746FB02463B69D31A022B01D903236A
:10293000CFE06A4B1B6803F48073002BF0D07B68F8
:102940009B68012B06D1664B1B6F654A43F0010360
:1029500013671CE07B689B68052B0CD1604B1B6FD9
:102960005F4A43F0040313675D4B1B6F5C4A43F0FF
:10297000010313670BE05A4B1B6F594A23F0010305
:102980001367574B1B6F564A23F0040313677B688A
:102990009B68002B15D0FFF70BFB38610AE0FFF7AF
:1029A00007FB02463B69D31A41F28832934201D9B0
:1029B00003238EE04A4B1B6F03F00203002BEED083
:1029C00014E0FFF7F5FA38610AE0FFF7F1FA024682
:1029D0003B69D31A41F28832934201D9032378E04C
:1029E0003F4B1B6F03F00203002BEED1FB7D012B4D
:1029F00005D13B4B1B6C3A4A23F0805313647B6830
:102A00009B69002B64D0364B9B6803F00C03082BAA
:102A10005CD07B689B69022B41D1324B00221A604B
:102A2000FFF7C6FA386108E0FFF7C2FA02463B69D1
:102A3000D31A022B01D903234BE0294B1B6803F067
:102A40000073002BF0D17B68DA697B681B6A1A433C
:102A50007B685B6A9B011A437B689B6A5B08013B4E
:102A60001B041A437B68DB6A1B061D4913434B603A
:102A70001C4B01221A60FFF79BFA386108E0FFF750
:102A800097FA02463B69D31A022B01D9032320E0AF
:102A9000134B1B6803F00073002BF0D018E0114BB0
:102AA00000221A60FFF784FA386108E0FFF780FA25
:102AB00002463B69D31A022B01D9032309E0084BD4
:102AC0001B6803F00073002BF0D101E0012300E04C
:102AD000002318461837BD4680BD00BF0070004077
:102AE000003802406000474280B584B000AF786093
:102AF00039607B68002B01D10123CAE0674B1B685A
:102B000003F00F033A689A420CD9644B3A68D2B288
:102B10001A70624B1B6803F00F033A689A4201D0A7
:102B20000123B6E07B681B6803F00203002B20D072
:102B30007B681B6803F00403002B05D0584B9B688F
:102B4000574A43F4E05393607B681B6803F0080323
:102B5000002B05D0524B9B68514A43F4604393606D
:102B60004F4B9B6823F0F0027B689B684C491343F2
:102B70008B607B681B6803F00103002B44D07B68EB
:102B80005B68012B07D1464B1B6803F40033002B15
:102B900019D101237DE07B685B68022B03D07B6841
:102BA0005B68032B07D13E4B1B6803F00073002BBF
:102BB00009D101236DE03A4B1B6803F00203002B9F
:102BC00001D1012365E0364B9B6823F003027B684B
:102BD0005B68334913438B60FFF7EAF9F8600AE05A
:102BE000FFF7E6F90246FB68D31A41F288329342B6
:102BF00001D903234DE02A4B9B6803F00C027B684C
:102C00005B689B009A42EBD1244B1B6803F00F03D7
:102C10003A689A420CD2214B3A68D2B21A701F4BD2
:102C20001B6803F00F033A689A4201D0012330E099
:102C30007B681B6803F00403002B08D0184B9B68CB
:102C400023F4E0527B68DB68154913438B607B6893
:102C50001B6803F00803002B09D0114B9B6823F479
:102C600060427B681B69DB000D4913438B6000F0F9
:102C70001DF801460A4B9B681B0903F00F03094A24
:102C8000D35C21FA03F3084A13600F20FFF74CF9D5
:102C9000002318461037BD4680BD00BF003C0240EF
:102CA00000380240885A0008AC010020F0B585B019
:102CB00000AF00237B600023FB6000233B60002308
:102CC000BB60634B9B6803F00C03042B07D0082BFD
:102CD00008D0002B40F0B4805E4BBB60B3E05E4B8D
:102CE000BB60B0E05A4B5B6803F03F037B60584B1E
:102CF0005B6803F48003002B4AD0554B5B689B094B
:102D00004FF0000440F2FF114FF0000203EA01050A
:102D100004EA0206294632464FF000034FF0000451
:102D2000540144EAD1644B0119462246491B62EB27
:102D300006024FF000034FF00004940144EA91644E
:102D40008B015B1A64EB02044FF000014FF00002AC
:102D5000E20042EA5372D9000B4614465B1944EB79
:102D600006044FF000014FF00002620242EAD35223
:102D700059020B461446184621467B684FF0000462
:102D80001A462346FDF72CFA03460C46FB6049E041
:102D90002F4B5B689B094FF0000440F2FF114FF08E
:102DA000000203EA010504EA0206294632464FF012
:102DB00000034FF00004540144EAD1644B0119466A
:102DC0002246491B62EB06024FF000034FF000045D
:102DD000940144EA91648B015B1A64EB02044FF0A6
:102DE00000014FF00002E20042EA5372D9000B46A4
:102DF00014465B1944EB06044FF000014FF000024B
:102E0000A20242EA935299020B4614461846214602
:102E10007B684FF000041A462346FDF7E1F90346AC
:102E20000C46FB600A4B5B681B0C03F00303013389
:102E30005B003B60FA683B68B2FBF3F3BB6002E007
:102E4000044BBB6000BFBB6818461437BD46F0BDDD
:102E5000003802400024F40000127A0080B400AF71
:102E6000034B1B681846BD465DF8047B704700BFE6
:102E7000AC01002080B500AFFFF7F0FF0146054B25
:102E80009B689B0A03F00703034AD35C21FA03F310
:102E9000184680BD00380240985A000880B500AF3F
:102EA000FFF7DCFF0146054B9B685B0B03F0070354
:102EB000034AD35C21FA03F3184680BD0038024070
:102EC000985A000880B582B000AF78607B68002B0C
:102ED00001D101231DE07B6893F83930DBB2002B70
:102EE00006D17B68002283F83820786801F0ACFBBB
:102EF0007B68022283F839207B681A687B68043378
:102F00001946104600F074F97B68012283F83920D5
:102F1000002318460837BD4680BD80B582B000AF9B
:102F200078607B68022283F839207B681B681A6A04
:102F300041F211131340002B0FD17B681B681A6AF2
:102F400040F244431340002B07D17B681B681A688A
:102F50007B681B6822F001021A60786801F084FC2B
:102F60007B68002283F839207B68002283F83820B0
:102F7000002318460837BD4680BD000080B582B0EA
:102F800000AF786039607B681B6801223968184699
:102F900000F020FA7B681B680B4A934207D17B68DC
:102FA0001B685A6C7B681B6842F400425A647B6859
:102FB0001B681A687B681B6842F001021A600023D4
:102FC00018460837BD4680BD0000014080B582B07C
:102FD00000AF786039607B681B680022396818464A
:102FE00000F0F8F97B681B681D4A934217D17B6893
:102FF0001B681A6A41F211131340002B0FD17B6832
:103000001B681A6A40F244431340002B07D17B68C7
:103010001B685A6C7B681B6822F400425A647B6808
:103020001B681A6A41F211131340002B0FD17B6801
:103030001B681A6A40F244431340002B07D17B6897
:103040001B681A687B681B6822F001021A607B68A3
:10305000012283F83920002318460837BD4680BD79
:103060000000014080B584B000AFF860B9607A60BC
:10307000FB6893F83830012B01D10223B4E0FB68E0
:10308000012283F83820FB68022283F839207B680C
:103090000C2B00F29F8001A252F823F0D1300008DF
:1030A000D5310008D5310008D531000811310008AC
:1030B000D5310008D5310008D5310008533100085A
:1030C000D5310008D5310008D5310008933100080A
:1030D000FB681B68B968184600F0A0F9FB681B681C
:1030E0009A69FB681B6842F008029A61FB681B68DA
:1030F0009A69FB681B6822F004029A61FB681B68EE
:103100009969BB681A69FB681B680A439A6162E0A7
:10311000FB681B68B968184600F0EEF8FB681B688E
:103120009A69FB681B6842F400629A61FB681B683D
:103130009A69FB681B6822F480629A61FB681B68CD
:103140009969BB681B691A02FB681B680A439A618C
:1031500041E0FB681B68B968184600F0C7F9FB68D6
:103160001B68DA69FB681B6842F00802DA61FB68D9
:103170001B68DA69FB681B6822F00402DA61FB68ED
:103180001B68D969BB681A69FB681B680A43DA6166
:1031900021E0FB681B68B968184600F013FAFB6869
:1031A0001B68DA69FB681B6842F40062DA61FB683D
:1031B0001B68DA69FB681B6822F48062DA61FB68CD
:1031C0001B68D969BB681B691A02FB681B680A4344
:1031D000DA6100E000BFFB68012283F83920FB6858
:1031E000002283F83820002318461037BD4680BDE2
:1031F00080B485B000AF786039600023FB607B68E5
:103200001B68FB607B68354A93420FD07B68B3F143
:10321000804F0BD07B68324A934207D07B68314A9B
:10322000934203D07B68304A934201D1012300E0EE
:103230000023002B08D0FB6823F07003FB603B6881
:103240005B68FA681343FB607B68244A93421BD097
:103250007B68B3F1804F17D07B68214A934213D02B
:103260007B68204A93420FD07B681F4A93420BD061
:103270007B681E4A934207D07B681D4A934203D065
:103280007B681C4A934201D1012300E00023002BFC
:1032900008D0FB6823F44073FB603B68DB68FA6886
:1032A0001343FB607B68FA681A603B689A687B6826
:1032B000DA623B681A687B689A627B68074A9342C5
:1032C00003D13B681A697B681A637B6801225A61E3
:1032D00000BF1437BD465DF8047B70470000014015
:1032E0000004004000080040000C00400040014085
:1032F000004401400048014080B487B000AF7860CE
:1033000039600023FB6000237B6100233B617B6805
:103310001B6A23F010027B681A627B681B6A7B6160
:103320007B685B683B617B689B69FB60FB6823F49F
:10333000E043FB60FB6823F44073FB603B681B6861
:103340001B02FA681343FB607B6923F020037B6157
:103350003B689B681B017A6913437B617B681C4A4D
:10336000934221D17B6923F080037B613B68DB685A
:103370001B017A6913437B617B6923F040037B6106
:103380003B6923F480633B613B6923F400633B6149
:103390003B685B699B003A6913433B613B689B69EF
:1033A0009B003A6913433B617B683A695A607B68CA
:1033B000FA689A613B685A687B689A637B687A69A5
:1033C0001A6200BF1C37BD465DF8047B704700BF22
:1033D0000000014080B487B000AFF860B9607A6047
:1033E00000237B610122BB6802FA03F37B61FB6867
:1033F0001A6A7B69DB431A40FB681A62FB681A6A27
:103400007968BB6801FA03F31A43FB681A6200BFCC
:103410001C37BD465DF8047B7047000080B487B060
:1034200000AF786039600023FB6000237B610023DC
:103430003B617B681B6A23F001027B681A627B6830
:103440001B6A7B617B685B683B617B689B69FB6097
:10345000FB6823F07003FB60FB6823F00303FB6051
:103460003B681B68FA681343FB607B6923F0020327
:103470007B613B689B687A6913437B617B681A4A6E
:1034800093421ED17B6923F008037B613B68DB68B4
:103490007A6913437B617B6923F004037B613B6999
:1034A00023F480733B613B6923F400733B613B6809
:1034B0005B693A6913433B613B689B693A69134313
:1034C0003B617B683A695A607B68FA689A613B683D
:1034D0005A687B685A637B687A691A6200BF1C3736
:1034E000BD465DF8047B70470000014080B487B0A2
:1034F00000AF786039600023FB6000237B6100230C
:103500003B617B681B6A23F480727B681A627B686C
:103510001B6A7B617B685B683B617B68DB69FB6086
:10352000FB6823F07003FB60FB6823F00303FB6080
:103530003B681B68FA681343FB607B6923F40073E4
:103540007B613B689B681B027A6913437B617B68E4
:103550001B4A934221D17B6923F400637B613B6862
:10356000DB681B027A6913437B617B6923F4806308
:103570007B613B6923F480533B613B6923F4005337
:103580003B613B685B691B013A6913433B613B68E4
:103590009B691B013A6913433B617B683A695A6036
:1035A0007B68FA68DA613B685A687B68DA637B6833
:1035B0007A691A6200BF1C37BD465DF8047B70470C
:1035C0000000014080B487B000AF7860396000230C
:1035D0003B610023FB6000237B617B681B6A23F453
:1035E00080527B681A627B681B6AFB607B685B6841
:1035F0007B617B68DB693B613B6923F4E0433B61B2
:103600003B6923F440733B613B681B681B023A69CA
:1036100013433B61FB6823F40053FB603B689B68EA
:103620001B03FA681343FB607B68104A934209D17D
:103630007B6923F480437B613B685B699B017A690A
:1036400013437B617B687A695A607B683A69DA6107
:103650003B685A687B681A647B68FA681A6200BF24
:103660001C37BD465DF8047B704700BF0000014079
:1036700080B483B000AF786039607B6893F83830ED
:10368000012B01D1022332E07B68012283F838202C
:103690007B68022283F839207B681B685A687B6844
:1036A0001B6822F070025A607B681B6859683B688F
:1036B0001A687B681B680A435A607B681B689A68B3
:1036C0007B681B6822F080029A607B681B6899689F
:1036D0003B685A687B681B680A439A607B680122D2
:1036E00083F839207B68002283F8382000231846AD
:1036F0000C37BD465DF8047B704780B582B000AFE3
:1037000078607B68002B01D101233FE07B6893F850
:103710003930DBB2002B06D17B68002283F83820D9
:10372000786801F0C7F87B68242283F839207B6829
:103730001B68DA687B681B6822F40052DA607868DC
:1037400000F00CF97B681B681A697B681B6822F41F
:1037500090421A617B681B685A697B681B6822F07B
:103760002A025A617B681B68DA687B681B6842F42E
:103770000052DA607B680022DA637B68202283F8DB
:1037800039207B68202283F83A2000231846083726
:10379000BD4680BD80B588B002AFF860B9603B60BF
:1037A0001346FB8000237B61FB6893F83930DBB262
:1037B000202B40F08380BB68002B02D0FB88002BBD
:1037C00001D101237BE0FB6893F83830012B01D154
:1037D000022374E0FB68012283F83820FB68002292
:1037E000DA63FB68212283F83920FEF7E1FB786178
:1037F000FB68FA889A84FB68FA88DA8442E0FB68FE
:10380000DB8C9BB2013B9AB2FB68DA84FB689B6855
:10381000B3F5805F22D13B6800937B690022802151
:10382000F86800F050F80346002B01D0032346E06F
:10383000BB683B613B691B881A46FB681B68C2F387
:1038400008025A60FB681B69002B03D1BB68023376
:10385000BB6017E0BB680133BB6013E03B680093BB
:103860007B6900228021F86800F02DF80346002BC8
:1038700001D0032323E0BB685A1CBA601A78FB68A6
:103880001B685A60FB68DB8C9BB2002BB7D13B688E
:1038900000937B6900224021F86800F014F8034689
:1038A000002B01D003230AE0FB68202283F8392093
:1038B000FB68002283F83820002300E0022318462A
:1038C0001837BD4680BD80B584B000AFF860B960E0
:1038D0003B601346FB712CE0BB69B3F1FF3F28D07E
:1038E000BB69002B07D0FEF763FB02463B68D31A87
:1038F000BA699A421DD2FB681B68DA68FB681B68CC
:1039000022F4D072DA60FB681B685A69FB681B6896
:1039100022F001025A61FB68202283F83920FB68FB
:10392000202283F83A20FB68002283F83820032302
:103930000FE0FB681B681A68BB681340BA689A42BC
:103940000CBF01230023DBB21A46FB799A42C3D095
:10395000002318461037BD4680BD0000B0B584B0C6
:1039600000AF78600023FB607B681B681B69FB600D
:10397000FB6823F44053FB607B68DB68FA68134301
:10398000FB607B681B68FA681A617B681B68DB68F0
:10399000FB60FB6823F4164323F00C03FB607B6899
:1039A0009A687B681B691A437B685B691A437B686A
:1039B000DB691343FA681343FB607B681B68FA6892
:1039C000DA607B681B685B69FB60FB6823F440730B
:1039D000FB607B689B69FA681343FB607B681B682C
:1039E000FA685A617B68DB69B3F5004F40F0E48008
:1039F0007B681B68AB4A934204D07B681B68AA4A69
:103A000093426CD1FFF74AFA024613469B001344D7
:103A10009A001A447B685B685B00B2FBF3F3A34A2D
:103A2000A2FB03235B091C01FFF738FA0246134689
:103A30009B0013449A001A447B685B685B00B2FBEE
:103A4000F3F5FFF72BFA024613469B0013449A0046
:103A50001A447B685B685B00B2FBF3F3934AA2FBFA
:103A600003235B09642202FB03F3EB1ADB0032330E
:103A70008E4AA2FB03235B095B0003F4F8731C442A
:103A8000FFF70CFA024613469B0013449A001A44AF
:103A90007B685B685B00B2FBF3F5FFF7FFF902465A
:103AA00013469B0013449A001A447B685B685B00D2
:103AB000B2FBF3F37D4AA2FB03235B09642202FB02
:103AC00003F3EB1ADB003233784AA2FB03235B09D2
:103AD00003F007027B681B6822449A6054E1FFF7F9
:103AE000C9F9024613469B0013449A001A447B68A6
:103AF0005B685B00B2FBF3F36C4AA2FB03235B0938
:103B00001C01FFF7B7F9024613469B0013449A00C5
:103B10001A447B685B685B00B2FBF3F5FFF7AAF918
:103B2000024613469B0013449A001A447B685B6864
:103B30005B00B2FBF3F35D4AA2FB03235B09642243
:103B400002FB03F3EB1ADB003233584AA2FB0323D8
:103B50005B095B0003F4F8731C44FFF78BF9024622
:103B600013469B0013449A001A447B685B685B0011
:103B7000B2FBF3F5FFF77EF9024613469B001344B0
:103B80009A001A447B685B685B00B2FBF3F3474A18
:103B9000A2FB03235B09642202FB03F3EB1ADB00A5
:103BA0003233424AA2FB03235B0903F007027B681E
:103BB0001B6822449A60E7E07B681B68394A93429D
:103BC00004D07B681B68384A934271D1FFF766F9CD
:103BD000024613469B0013449A001A447B685B68B4
:103BE0009B00B2FBF3F3314AA2FB03235B091C01E8
:103BF000FFF754F9024613469B0013449A001A44F7
:103C00007B685B689B00B2FBF3F5FFF747F9024660
:103C100013469B0013449A001A447B685B689B0020
:103C2000B2FBF3F3214AA2FB03235B09642202FBEC
:103C300003F3EB1A1B0132331C4AA2FB03235B097B
:103C400003F0F0031C44FFF729F9024613469B00DA
:103C500013449A001A447B685B689B00B2FBF3F53F
:103C6000FFF71CF9024613469B0013449A001A44BE
:103C70007B685B689B00B2FBF3F30C4AA2FB032357
:103C80005B09642202FB03F3EB1A1B013233074A80
:103C9000A2FB03235B0903F00F027B681B6822442D
:103CA0009A6071E000100140001401401F85EB5143
:103CB000FFF7E0F8024613469B0013449A001A44AB
:103CC0007B685B689B00B2FBF3F3314AA2FB0323E2
:103CD0005B091C01FFF7CEF8024613469B00134414
:103CE0009A001A447B685B689B00B2FBF3F5FFF710
:103CF000C1F8024613469B0013449A001A447B689D
:103D00005B689B00B2FBF3F3214AA2FB03235B0930
:103D1000642202FB03F3EB1A1B0132331C4AA2FBA1
:103D200003235B0903F0F0031C44FFF7A3F80246EA
:103D300013469B0013449A001A447B685B689B00FF
:103D4000B2FBF3F5FFF796F8024613469B001344C7
:103D50009A001A447B685B689B00B2FBF3F30C4A41
:103D6000A2FB03235B09642202FB03F3EB1A1B0192
:103D70003233074AA2FB03235B0903F00F027B687F
:103D80001B6822449A60FFE700BF1037BD46B0BDF4
:103D90001F85EB5180B586B000AFF860B9607A60DE
:103DA0000123FB75FB68012B0AD0FB68022B07D0AF
:103DB00000F06EFE0246092313604FF0FF330FE060
:103DC0007B689AB26423B9680748FFF7E3FC0346AF
:103DD000FB75FB7D002B01D17B6801E04FF0FF33C9
:103DE00018461837BD4680BDE803002080B500AFF7
:103DF0001E210020FCF7C2FF1E210120FCF7BEFFA0
:103E000001210120FCF796FF01210020FCF792FF21
:103E10004FF4FA70FEF7D8F832210020FCF7AEFF1D
:103E200032210120FCF7AAFF4FF4FA70FEF7CCF81C
:103E300046210020FCF7A2FF46210120FCF79EFF4F
:103E40004FF47A70FEF7C0F832210020FCF796FF9D
:103E500032210120FCF792FF4FF4FA70FEF7B4F81C
:103E60001E210020FCF78AFF1E210120FCF786FF9F
:103E70004FF4FA70FEF7A8F800210020FCF77EFF4F
:103E800000210120FCF77AFF6420FEF79DF8002056
:103E9000FCF730FF0120FCF72DFF00BF80BD80B58F
:103EA00000AF1E210020FCF769FF1E210120FCF756
:103EB00065FF00210120FCF73DFF00210020FCF7F9
:103EC00039FF4FF4FA70FEF77FF832210020FCF73B
:103ED00055FF32210120FCF751FF4FF4FA70FEF735
:103EE00073F846210020FCF749FF46210120FCF72A
:103EF00045FF4FF47A70FEF767F832210020FCF797
:103F00003DFF32210120FCF739FF4FF4FA70FEF734
:103F10005BF81E210020FCF731FF1E210120FCF779
:103F20002DFF4FF4FA70FEF74FF800210020FCF748
:103F300025FF00210120FCF721FF6420FEF744F853
:103F40000020FCF7D7FE0120FCF7D4FE00BF80BDA7
:103F500080B500AF1E210020FCF710FF1E210120BC
:103F6000FCF70CFF01210120FCF7E4FE01210020F9
:103F7000FCF7E0FE4FF4FA70FEF726F8322100203D
:103F8000FCF7FCFE4FF4FA70FEF71EF83221012018
:103F9000FCF7F4FE46210020FCF7F0FE4FF47A70A7
:103FA000FEF712F846210120FCF7E8FE322100203E
:103FB000FCF7E4FE4FF4FA70FEF706F83221012018
:103FC000FCF7DCFE1E210020FCF7D8FE4FF4FA704F
:103FD000FDF7FAFF1E210120FCF7D0FE4FF4FA7026
:103FE000FDF7F2FF00210020FCF7C8FE00210120B0
:103FF000FCF7C4FE6420FDF7E7FF0020FCF77AFE23
:104000000120FCF777FE00BF80BD000080B582B0C4
:1040100000AF0A233B6001237B60FDF763FF00F0E4
:1040200087F800F0EDF900F0BDF900F05BF900F061
:10403000F9F8354800F0DEFD01210020FCF7A0FA78
:104040000320FEF7C9F8002200214FF0FF30FEF7F1
:10405000CEF8022141F63E00FCF724FF2B4941F641
:104060003E00FCF7EBFD0020FCF7D6FE2848FCF7ED
:10407000A9FD2848FCF788FD42F210710020FCF7EA
:10408000EDFE42F210710120FCF7E8FE224B1B7896
:10409000DBB2002BFAD0204B00221A701F4B1B788A
:1040A000DBB20133DAB21D4B1A701C4B1B78DBB24A
:1040B0001A463B6803FB02F3642B02D9174B00221C
:1040C0001A707B68012B02D100237B6001E0012381
:1040D0007B607B68012B01D1114900E011490F4B36
:1040E0001B78DBB21A463B6803FB02F31A460E4804
:1040F00000F00CFDFFF77AFEFFF72AFFFFF7CFFE77
:104100000A4800F077FDC1E71C5A0008840100202E
:1041100015450008494500083C0200203D020020EA
:104120002C5A0008345A0008405A0008605A000807
:1041300080B594B000AF0023BB60364B1B6C354A92
:1041400043F080531364334B1B6C03F08053BB600C
:10415000BB6800237B60304B1B6823F440432E4A2E
:1041600043F4004313602C4B1B6803F440437B6013
:104170007B6802233B620123FB6210233B63022323
:10418000BB630023FB6310233B644FF4A8737B6481
:104190000423BB640723FB6407F120031846FEF7E2
:1041A00061FA0346002B04D04FF4AC711B4800F0B9
:1041B000F3F90F23FB6002233B6100237B614FF483
:1041C0008053BB610023FB6107F10C0302211846F9
:1041D000FEF78AFC0346002B04D04FF4B3710F485E
:1041E00000F0DAF9FEF73AFE02460D4BA3FB02237C
:1041F0009B091846FEF725F80420FEF73DF800223B
:1042000000214FF0FF30FDF7F2FF00BF5037BD46F1
:1042100080BD00BF0038024000700040685A0008AE
:10422000D34D621080B58AB000AF2C4B4FF0804266
:104230001A602A4B00225A60284B00229A60274BB2
:104240000022DA60254B00221A612448FEF73AFE6C
:104250000346002B04D040F28311214800F09CF962
:1042600000233B6200237B6207F1200319461B48B1
:10427000FFF7FEF90346002B04D04FF4C571184830
:1042800000F08AF960237B600023BB600023FB60A1
:1042900000237B613B1D002219461048FEF7E2FE19
:1042A0000346002B04D040F293110D4800F074F93E
:1042B0003B1D042219460948FEF7D4FE0346002B95
:1042C00004D04FF4CC71064800F066F9034800F0C2
:1042D00091FA00BF2837BD4680BD00BFAC03002067
:1042E000685A000880B58AB000AF2B4B2B4A1A6081
:1042F000294B00225A60284B00229A60264B00224C
:10430000DA60254B00221A612348FEF7DBFD0346E5
:10431000002B04D040F2AD11214800F03DF90023FC
:104320003B6200237B6207F1200319461A48FFF71E
:104330009FF90346002B04D04FF4DA71184800F0BF
:104340002BF960237B600023BB600023FB6000230C
:104350007B613B1D002219460F48FEF783FE034692
:10436000002B04D040F2BD110D4800F015F93B1DA3
:10437000042219460848FEF775FE0346002B04D0B8
:104380004FF4E171064800F007F9034800F032FAF3
:1043900000BF2837BD4680BD7003002000040040E8
:1043A000685A000880B500AF124B134A1A60114BCF
:1043B0004FF4E1325A600F4B00229A600D4B0022FD
:1043C000DA600C4B00221A610A4B0C225A61094B2D
:1043D00000229A61074B0022DA610648FFF78DF947
:1043E0000346002B04D040F2D711044800F0D4F863
:1043F00000BF80BDE803002000440040685A000868
:1044000080B58AB000AF00233B613D4B1B6B3C4A3B
:1044100043F0040313633A4B1B6B03F004033B614B
:104420003B690023FB60364B1B6B354A43F080032E
:104430001363334B1B6B03F08003FB60FB680023AB
:10444000BB602F4B1B6B2E4A43F0010313632C4BB5
:104450001B6B03F00103BB60BB6800237B60284B30
:104460001B6B274A43F002031363254B1B6B03F0BE
:1044700002037B607B68002220212248FEF7C0F8FF
:104480004FF400537B61204BBB610023FB6107F1BC
:10449000140319461D48FDF719FF02237B611C4BCD
:1044A000BB610023FB6107F1140319461748FDF7B0
:1044B0000DFF20237B610123BB610023FB610023EF
:1044C0003B6207F1140319460E48FDF7FFFE4FF457
:1044D00080637B610E4BBB610023FB6107F114031A
:1044E00019460848FDF7F2FE00220F210720FDF7CC
:1044F0007EFE0720FDF797FE00BF2837BD4680BD32
:104500000038024000000240000021100008024074
:104510000000111080B582B000AF0020FCF756FCFF
:104520000346FB80FB88002B09D10020FCF7BEFB73
:104530000346082B03D04BF6D02000F005F800BF4F
:104540000837BD4680BD000080B582B000AF03468D
:10455000FB80044AFB881380FB881946024800F060
:10456000D5FAFEE73A020020785A000880B500AF7D
:10457000074B01221A704FF49670FDF725FD054B8D
:104580004FF400525A612820FDF767FE00BF80BD3E
:104590003C020020003C014080B483B000AF786052
:1045A0003960FEE780B582B000AF00237B60254B09
:1045B0005B6C244A43F480435364224B5B6C03F4EA
:1045C00080437B607B6800233B601E4B1B6C1D4A55
:1045D00043F0805313641B4B1B6C03F080533B6010
:1045E0003B680720FDF7F8FD002200216FF00B006B
:1045F000FDF7FDFD002200216FF00A00FDF7F7FD39
:10460000002200216FF00900FDF7F1FD00220021DA
:104610006FF00400FDF7EBFD002200216FF00300B6
:10462000FDF7E5FD002200216FF00100FDF7DFFD41
:10463000002200214FF0FF30FDF7D9FD00BF083701
:10464000BD4680BD0038024080B592B000AF7860B2
:104650007B681B68B3F1804F5DD17B681B68B3F149
:10466000804F22D17B681B7E012B1ED100233B6330
:104670005C4B1B6C5B4A43F001031364594B1B6C8E
:1046800003F001033B633B6B01237B630223BB63AA
:104690000023FB6300233B6401237B6407F13403A5
:1046A00019465148FDF712FE26E07B681B68B3F1FE
:1046B000804F21D17B681B7E022B1DD10023FB6222
:1046C000484B1B6C474A43F001031364454B1B6C7A
:1046D00003F00103FB62FB6A02237B630223BB63DB
:1046E0000023FB6300233B6401237B6407F1340355
:1046F00019463D48FDF7EAFD0023BB62394B1B6CB0
:10470000384A43F001031364364B1B6C03F001037A
:10471000BB62BB6A61E07B681B68344A93425CD130
:104720007B681B68314A934222D17B681B7E012B38
:104730001ED100233B612B4B1B6C2A4A43F0020322
:104740001364284B1B6C03F002033B613B6910238D
:104750007B610223BB610023FB6100233B620223D8
:104760007B6207F1140319462148FDF7AFFD26E0EF
:104770007B681B681D4A934221D17B681B7E022BFC
:104780001DD10023FB60174B1B6C164A43F002033C
:104790001364144B1B6C03F00203FB60FB682023C3
:1047A0007B610223BB610023FB6100233B62022388
:1047B0007B6207F1140319460D48FDF787FD0023BE
:1047C000BB60084B1B6C074A43F002031364054BA4
:1047D0001B6C03F00203BB60BB6800BF4837BD46DB
:1047E00080BD00BF003802400000024000040040CD
:1047F0000004024080B588B000AF78607B681B6819
:10480000B3F1804F10D10323FB6002233B610023EF
:104810007B610023BB610123FB6107F10C03194697
:104820000E48FDF753FD14E07B681B680C4A934269
:104830000FD13023FB6002233B6100237B61002307
:10484000BB610223FB6107F10C0319460548FDF724
:104850003DFD00BF2037BD4680BD00BF00000240C7
:10486000000400400004024080B483B000AF7860D0
:104870007B681B68B3F1804F06D10C4B1B6C0B4A55
:1048800023F0010313640AE07B681B68084A934223
:1048900005D1064B1B6C054A23F00203136400BFCD
:1048A0000C37BD465DF8047B704700BF00380240FE
:1048B0000004004080B588B000AF78607B681B685A
:1048C000124A93421DD10023BB60114B1B6C104A4E
:1048D00043F4003313640E4B1B6C03F40033BB60D2
:1048E000BB680C23FB6002233B6100237B61002338
:1048F000BB610723FB6107F10C0319460548FDF76F
:10490000E5FC00BF2037BD4680BD00BF004400402D
:10491000003802400000024080B582B000AF03467C
:10492000FB80FB88B3F5806F02D0FB88022B01D19E
:10493000FCF7A4F9FB88B3F5005F01D1FFF716FE81
:1049400000BF0837BD4680BD80B400AF00BFBD4684
:104950005DF8047B704780B400AFFEE780B400AF21
:10496000FEE780B400AFFEE780B400AFFEE780B49E
:1049700000AF00BFBD465DF8047B704780B400AF58
:1049800000BFBD465DF8047B704780B400AF00BF38
:10499000BD465DF8047B704780B500AFFDF7F4FAC3
:1049A000FDF786FC00BF80BD80B500AF0220FDF79B
:1049B00041FE00BF80BD80B500AF4FF48060FDF7C1
:1049C00039FE4FF40050FDF735FE00BF80BD0000FA
:1049D00080B400AF164BD3F88830154A43F4700307
:1049E000C2F88830134B1B68124A43F0010313606E
:1049F000104B00229A600F4B1B680E4A23F0847301
:104A000023F4803313600B4B0B4A5A60094B1B682D
:104A1000084A23F480231360064B0022DA60044B1B
:104A20004FF000629A6000BFBD465DF8047B70479E
:104A300000ED00E00038024010300024DFF834D0F0
:104A4000002103E00C4B5B58435004310B480C4BE6
:104A500042189A42F6D30B4A02E0002342F8043B84
:104A6000094B9A42F9D3FFF7B3FF00F017F8FFF7AD
:104A7000CDFA704700800120485B0008000000204C
:104A800014020020140200202C040020FEE7000085
:104A9000014B1868704700BFB001002070B50D4E83
:104AA0000D4CA41BA4100025A54209D10B4E0C4CA3
:104AB00000F0A8FFA41BA4100025A54205D170BDDD
:104AC00056F8253098470135EEE756F825309847D7
:104AD0000135F2E7405B0008405B0008405B0008DE
:104AE000445B000810B5431E0A44914200D110BD3A
:104AF00011F8014B03F8014FF7E7024403469342D4
:104B000000D1704703F8011BF9E700000FB40A4B0E
:104B100013B51C6824B1A36913B9204600F022FA2A
:104B200005AB049AA1680193204600F0DBFB02B0BC
:104B3000BDE8104004B07047B001002070B50E46CB
:104B4000054618B183690BB900F00CFAAB69AC6883
:104B500013B9284600F006FA234B9C4217D16C6823
:104B6000A3891B071DD52369DBB1013EA36816F895
:104B7000011F013BA360E9B9002B2EDA22460A216E
:104B8000284600F03FF8013011D00A2011E0174B01
:104B90009C4201D1AC68E3E7154B9C4208BFEC682E
:104BA000DEE72146284600F07FF80028DDD04FF0F0
:104BB000FF3070BD002B04DAA2699A4206DC0A2994
:104BC00004D023685A1C22601970CFE72246284679
:104BD00000F018F80130C9D1E9E723680A205A1C0F
:104BE00022601870E5E700BFC45A0008E45A0008C4
:104BF000A45A0008024B01461868FFF79FBF00BF88
:104C0000B0010020F8B50E461446054618B1836978
:104C10000BB900F0A7F9214B9C422AD16C68A3691B
:104C2000A360A3891A072ED5236963B3236920687B
:104C3000C01A6369F6B28342374604DC214628462F
:104C400000F026F928BBA368013BA36023685A1C27
:104C500022601E7063690130834204D0A389DB07A0
:104C600019D50A2E17D12146284600F011F990B126
:104C70000FE00B4B9C4201D1AC68D0E7094B9C4242
:104C800008BFEC68CBE72146284600F00DF8002865
:104C9000CCD04FF0FF373846F8BD00BFC45A0008EB
:104CA000E45A0008A45A0008324B70B51D68064645
:104CB0000C4625B1AB6913B9284600F053F92E4BC9
:104CC0009C420FD16C68B4F90C309AB215072CD401
:104CD000D00611D40922326043F04003A3814FF083
:104CE000FF303EE0254B9C4201D1AC68EBE7244B02
:104CF0009C4208BFEC68E6E7510712D5616B41B1F1
:104D000004F14403994202D0304600F019FA00231E
:104D10006363A38923F02403A381002363602369D1
:104D20002360A38943F00803A38123694BB9A389B6
:104D300003F42073B3F5007F03D02146304600F022
:104D4000BFF9A28912F001030CD00023A3606369AC
:104D50005B42A361236953B9B4F90C3013F08000AE
:104D6000BAD170BD920758BF6369A360F2E7002013
:104D7000F7E700BFB0010020C45A0008E45A000859
:104D8000A45A00088A892DE9F041054610070C460F
:104D900058D44B68002B05DC0B6C002B02DC002088
:104DA000BDE8F081E66A002EF9D0002312F48052AB
:104DB0002F68216A2B6032D0606DA3895A0705D510
:104DC0006368C01A636B0BB1236CC01A00230246E0
:104DD000E66A216A2846B047431CA38906D12968A0
:104DE0001D2948D8294ACA40D60744D50022626006
:104DF000D9042269226004D5421C01D12B6803B971
:104E00006065616B2F600029C9D004F144039942A9
:104E100002D0284600F094F900206063C0E7012327
:104E20002846B047411CC8D12B68002BC5D01D2B8C
:104E300001D0162B01D12F60B1E7A38943F04003C5
:104E4000A381ADE70F69002FA9D093070E6808BFB3
:104E50004B690F6018BF0023A6EB07088B60B8F101
:104E6000000F9CDD43463A46216AA66A2846B047B1
:104E7000002806DCA38943F04003A3814FF0FF30F4
:104E80008EE70744A8EB0008E9E700BF01004020D7
:104E900038B50B6905460C46DBB118B183690BB90F
:104EA00000F060F80C4B9C4209D16C68B4F90C30EE
:104EB0007BB121462846BDE83840FFF763BF074B6A
:104EC0009C4201D1AC68F1E7054B9C4208BFEC68FD
:104ED000ECE7002038BD00BFC45A0008E45A0008BF
:104EE000A45A0008002310B50446C0E900338360CB
:104EF00081814366C281C0E9043383611946082277
:104F00005C30FFF7FAFD054B6362054BA362054B6E
:104F1000E362054B2462236310BD00BF3D580008C7
:104F20005F58000897580008BB580008014900F076
:104F300085B800BF914E000870B54A1E68255543DC
:104F40000E4605F1740100F049F9044640B1002114
:104F5000C0E900160C30A06005F16802FFF7CDFD36
:104F6000204670BD836910B5044633BBC0E91233D7
:104F70000365124B124A1B688262984204BF0123E8
:104F8000836100F01FF86060204600F01BF8A0600D
:104F9000204600F017F80022E06004216068FFF767
:104FA000A1FF01220921A068FFF79CFF0222122124
:104FB000E068FFF797FF0123A36110BDA05A000826
:104FC0002D4F0008F8B51B4B1E68B369074613B98F
:104FD0003046FFF7C7FF4836D6E90134013B03D519
:104FE000336833B13668F7E7B4F90C506DB1683403
:104FF000F4E704213846FFF79FFF30600028F1D125
:105000000C233B6004462046F8BD0B4B6566C4E9A3
:105010000055A560C4E90335C4E9055508222946B1
:1050200004F15C00FFF769FDC4E90D55C4E91255B0
:10503000E9E700BFA05A00080100FFFF2DE9F8438F
:105040008046894600F14804002614B93046BDE880
:10505000F883D4E90175013F01D52468F5E7AB89F0
:10506000012B07D9B5F90E30013303D0294640464C
:10507000C84706436835EEE770B50E46B1F90E1025
:10508000002996B014461D4607DA00232B60B38929
:105090001A0610D44FF480630EE06A4600F034FC28
:1050A0000028F2DB019A02F47042A2F500535A4242
:1050B0005A412A60EEE740230020236016B070BDFD
:1050C0008B8973B59D0706460C4607D504F1470347
:1050D000236023610123636102B070BD01AB6A46A6
:1050E000FFF7CAFF00990546304600F077F848B947
:1050F000B4F90C309A05EFD423F0030343F0020314
:10510000A381E3E70D4BB362A389206043F08003E2
:10511000A381009B6361019B20615BB1B4F90E1018
:10512000304600F003FC28B1A38923F0030343F0C9
:105130000103A381A3891D43A581CDE72D4F00085D
:1051400038B50546002945D051F8043C0C1F002B0A
:10515000B8BFE41800F00CFC1F4A1368104633B9BE
:10516000636014602846BDE8384000F002BCA342EA
:105170000CD921686218934204BF1A685B686360A7
:1051800004BF521822600460ECE713465A680AB163
:10519000A242FAD919685818A0420BD120680144DC
:1051A000581882421960DDD1106852685A60014473
:1051B0001960D7E702D90C232B60D3E720682118A8
:1051C0008A4204BF11685268626004BF09182160F6
:1051D0005C60C7E738BD00BF4002002070B5CD1C41
:1051E00025F0030508350C2D38BF0C25002D06468B
:1051F00001DBA94203D90C233360002070BD00F00D
:10520000B7FB214A1468214691B9204C23681BB989
:10521000304600F003FB20602946304600F0FEFADD
:10522000431C24D10C233360304600F0A2FBE4E79A
:105230000B685B1B18D40B2B0FD90B60CD50CC180F
:10524000304600F096FB04F10B00231D20F0070010
:10525000C31AD3D05A42E250D0E78C424B6816BFF3
:10526000636013600C46EBE70C464968CCE7C41C4E
:1052700024F00304A04205D0211A304600F0CEFAF3
:105280000130CFD02560DBE740020020440200203F
:105290009368013B002B10B4936008DA9469A34231
:1052A00001DB0A2903D15DF8044BFFF7ABBC13689F
:1052B000581C1060197008465DF8044B7047F8B52B
:1052C00006460F461446D518AC4201D1002007E02F
:1052D0003A4614F8011B3046FFF7DAFF431CF3D1BE
:1052E000F8BD00002DE9F04F9DB00C461746039322
:1052F000064618B183690BB9FFF734FE7B4B9C421D
:1053000057D17468A38918075DD52369002B5AD03B
:105310000023099320238DF8293030238DF82A307B
:105320004FF0010BB846454615F8013B0BB1252B54
:1053300054D1B8EB070A0BD053463A4621463046C3
:10534000FFF7BDFF013000F0C280099B5344099371
:1053500098F80030002B00F0BA8000234FF0FF32A5
:10536000CDE90523049307938DF853301A93A8468B
:10537000052218F8011B5E48FBF7B2F8049B78BBC6
:10538000D90644BF20228DF853201A0744BF2B2290
:105390008DF853202A782A2A2AD0079AA846002076
:1053A0000A25414611F8013B303B092B69D960B30E
:1053B00024E0504B9C4201D1B468A3E74E4B9C4281
:1053C00008BFF4689EE721463046FFF76DFC0028D1
:1053D0009ED04FF0FF301DB0BDE8F08FA846A2E789
:1053E000434A801A0BFA00F0184304904546BEE782
:1053F000039A111D12680391002A01DB079204E051
:10540000524243F002030792049398F800302E2B87
:105410000ED198F801302A2B38D1039B1A1D1B6836
:105420000392002BB8BF4FF0FF3308F10208059339
:10543000324D98F8001003222846FBF751F840B18E
:105440004023401B03FA00F0049B034308F10108CA
:10545000049398F800102A488DF82810062208F1C5
:105460000107FBF73DF8002837D0264B1BBB039BF9
:10547000073323F0070308330393099B4B44099335
:1054800050E705FB0232012088468AE7002308F135
:105490000108059319460A25404610F8012B303AB9
:1054A000092A03D9002BC3D00591C1E705FB0121CF
:1054B00001238046F0E703AB00932246124B04A978
:1054C0003046AFF30080B0F1FF3F8146D5D1A389CC
:1054D0005B063FF57EAF09987DE703AB009322465C
:1054E000094B04A9304600F087F8ECE7C45A0008DD
:1054F000045B0008E45A0008A45A00080A5B00088C
:105500000E5B000800000000BF5200082DE9F047C4
:1055100091461F468A680B69DDF820809342B8BF28
:105520001346C9F8003091F8432006460C4612B1E4
:105530000133C9F800302368990642BFD9F800301A
:105540000233C9F80030256815F0060507D104F1CB
:10555000190AE368D9F800209B1AAB4228DC94F8BA
:1055600043302268003318BF012392062DD404F182
:10557000430239463046C047013020D02368E568F1
:10558000D9F8002003F00603042B08BFAD1AA36866
:1055900022690CBF25EAE57500259342C4BF9B1A1A
:1055A000ED184FF000091A344D451AD1002008E0DB
:1055B0000123524639463046C047013003D14FF0EF
:1055C000FF30BDE8F0870135C3E7E1185A1C3020F1
:1055D00081F84300224494F8451082F843100233C6
:1055E000C5E70123224639463046C0470130E6D0A0
:1055F00009F10109D8E700002DE9F04301F1430C5E
:105600000C46097E85B06E291746064698460C9AC8
:1056100000F0B38022D8632936D00AD8002900F0E0
:10562000B980582900F0838004F1420584F84210C3
:1056300032E0642901D06929F6D120681368050693
:1056400003F104012AD51B681160002B03DA2D2217
:105650005B4284F843206F480A2239E0732900F046
:105660009D8008D86F2920D07029DDD1236843F0B0
:105670002003236003E0752917D07829D4D178233B
:1056800084F84530644855E01368191D1B681160A3
:1056900004F1420584F8423001238CE01B6811605C
:1056A00010F0400F18BF1BB2CFE713682568181D14
:1056B0001060280601D51B6802E06806FBD51B8830
:1056C00054486F2914BF0A220822002184F843108D
:1056D0006568A560002DC0F29580216821F0040165
:1056E0002160002B3DD1002D40F08E806546082AB8
:1056F0000BD12368DB0708D5236962689A42DEBFB5
:10570000302305F8013C05F1FF35ACEB05032361BF
:10571000CDF800803B4603AA21463046FFF7F6FE4F
:1057200001304DD14FF0FF3005B0BDE8F08339486E
:1057300084F84510136821681D1D1B6815600A0652
:105740000BD5CA0744BF41F0200121601BB9226874
:1057500022F0200222601022B7E74D0648BF9BB21C
:10576000EFE76546B3FBF2F102FB1133C35C05F8CA
:10577000013D0B460029F5D1B9E713682568616939
:10578000181D106028061B6801D5196002E06A0622
:10579000FBD51980002323616546B9E71368191DFD
:1057A00011601D68626800212846FAF799FE08B169
:1057B000401B606063682361002384F84330A7E7DF
:1057C00023692A4639463046C0470130AAD02368AB
:1057D0009B0713D4E068039B9842B8BF1846A3E721
:1057E00001234A4639463046C04701309AD0013538
:1057F000E368039A9B1AAB42F2DCEBE7002504F165
:105800001909F5E7002BACD1037884F8423004F194
:1058100042056CE7155B0008265B000838B5064CAE
:10582000002305460846236000F0DEF8431C02D141
:10583000236803B12B6038BD2804002010B50C4646
:10584000B1F90E1000F096F80028ABBF636DA38984
:105850001B1823F48053ACBF6365A38110BD2DE9F1
:10586000F0411F468B89DB0505460C46164605D5DB
:1058700002230022B1F90E1000F068F8A389B4F9F0
:105880000E1023F48053A38132463B462846BDE8E0
:10589000F04100F017B810B50C46B1F90E1000F049
:1058A00055F8431CA38915BF606523F4805343F466
:1058B0008053A38118BFA38110BDB1F90E1000F071
:1058C00013B8000038B5074C0546084611460022BB
:1058D00022601A46FEF75EFA431C02D1236803B128
:1058E0002B6038BD2804002038B5064C002305463F
:1058F0000846236000F050F8431C02D1236803B12E
:105900002B6038BD2804002038B5074C002305461D
:1059100008461146236000F047F8431C02D1236873
:1059200003B12B6038BD00BF2804002038B5064CF9
:10593000002305460846236000F03EF8431C02D1D0
:10594000236803B12B6038BD2804002038B5074C0C
:10595000054608461146002222601A4600F034F837
:10596000431C02D1236803B12B6038BD28040020FA
:105970007047704738B5074C054608461146002267
:1059800022601A4600F028F8431C02D1236803B1B4
:105990002B6038BD28040020024B58221A604FF0BB
:1059A000FF30704728040020024B58221A604FF045
:1059B000FF30704728040020024B58221A60002054
:1059C000704700BF28040020024B58221A604FF095
:1059D000FF30704728040020024B58221A604FF015
:1059E000FF30704728040020044A05491368002B43
:1059F00008BF0B4618441060184670474802002044
:105A000030040020F8B500BFF8BC08BC9E467047C3
:0C5A1000F8B500BFF8BC08BC9E4670470B
:105A1C0048656C6C6F20776F726C642021210000DC
:105A2C00466F7277617264004261636B7761726476
:105A3C000000000053657474696E67206D6F746F9D
:105A4C007220257320617420256C75207261746935
:105A5C006F0A000073746F70000000002E2E2F531D
:105A6C0072632F6D61696E2E630000004572726F58
:105A7C0072202121212025780A000000000000005E
:105A8C0000000000010203040607080900000000E2
:105A9C0001020304B401002000000000000000001B
:105AAC0000000000000000000000000000000000EA
:105ABC0000000000000000000000000000000000DA
:105ACC0000000000000000000000000000000000CA
